{
  "contractName": "Posts",
  "abi": [
    {
      "inputs": [],
      "stateMutability": "nonpayable",
      "type": "constructor"
    },
    {
      "anonymous": false,
      "inputs": [
        {
          "indexed": true,
          "internalType": "address",
          "name": "_from",
          "type": "address"
        },
        {
          "indexed": true,
          "internalType": "address",
          "name": "_to",
          "type": "address"
        },
        {
          "indexed": false,
          "internalType": "uint256",
          "name": "_value",
          "type": "uint256"
        }
      ],
      "name": "Transfer",
      "type": "event"
    },
    {
      "inputs": [
        {
          "internalType": "uint256",
          "name": "",
          "type": "uint256"
        }
      ],
      "name": "posts",
      "outputs": [
        {
          "internalType": "int256",
          "name": "post_id",
          "type": "int256"
        },
        {
          "internalType": "int256",
          "name": "current_comment_ID",
          "type": "int256"
        },
        {
          "internalType": "address",
          "name": "posted_by",
          "type": "address"
        },
        {
          "internalType": "string",
          "name": "title",
          "type": "string"
        },
        {
          "internalType": "string",
          "name": "description",
          "type": "string"
        },
        {
          "internalType": "string",
          "name": "image",
          "type": "string"
        },
        {
          "internalType": "string",
          "name": "suggested_disease",
          "type": "string"
        },
        {
          "internalType": "string",
          "name": "predicted_disease",
          "type": "string"
        },
        {
          "internalType": "int256",
          "name": "reward",
          "type": "int256"
        },
        {
          "internalType": "string",
          "name": "status",
          "type": "string"
        },
        {
          "internalType": "int256",
          "name": "best_comment_ID",
          "type": "int256"
        }
      ],
      "stateMutability": "view",
      "type": "function",
      "constant": true
    },
    {
      "inputs": [
        {
          "internalType": "string",
          "name": "title",
          "type": "string"
        },
        {
          "internalType": "string",
          "name": "description",
          "type": "string"
        },
        {
          "internalType": "string",
          "name": "image",
          "type": "string"
        },
        {
          "internalType": "int256",
          "name": "reward",
          "type": "int256"
        },
        {
          "internalType": "string",
          "name": "suggested_disease",
          "type": "string"
        },
        {
          "internalType": "string",
          "name": "predicted_disease",
          "type": "string"
        }
      ],
      "name": "createPost",
      "outputs": [],
      "stateMutability": "nonpayable",
      "type": "function"
    },
    {
      "inputs": [
        {
          "internalType": "string",
          "name": "comment",
          "type": "string"
        },
        {
          "internalType": "int256",
          "name": "post_id",
          "type": "int256"
        }
      ],
      "name": "addComment",
      "outputs": [],
      "stateMutability": "nonpayable",
      "type": "function"
    },
    {
      "inputs": [
        {
          "internalType": "int256",
          "name": "post_id",
          "type": "int256"
        }
      ],
      "name": "likeorRemoveLike",
      "outputs": [],
      "stateMutability": "nonpayable",
      "type": "function"
    },
    {
      "inputs": [
        {
          "internalType": "int256",
          "name": "post_id",
          "type": "int256"
        }
      ],
      "name": "removePost",
      "outputs": [],
      "stateMutability": "nonpayable",
      "type": "function"
    },
    {
      "inputs": [],
      "name": "returnData",
      "outputs": [
        {
          "components": [
            {
              "internalType": "int256",
              "name": "post_id",
              "type": "int256"
            },
            {
              "internalType": "int256",
              "name": "current_comment_ID",
              "type": "int256"
            },
            {
              "internalType": "address",
              "name": "posted_by",
              "type": "address"
            },
            {
              "internalType": "string",
              "name": "title",
              "type": "string"
            },
            {
              "internalType": "string",
              "name": "description",
              "type": "string"
            },
            {
              "internalType": "string",
              "name": "image",
              "type": "string"
            },
            {
              "internalType": "string",
              "name": "suggested_disease",
              "type": "string"
            },
            {
              "internalType": "string",
              "name": "predicted_disease",
              "type": "string"
            },
            {
              "components": [
                {
                  "internalType": "int256",
                  "name": "comment_id",
                  "type": "int256"
                },
                {
                  "internalType": "string",
                  "name": "comment",
                  "type": "string"
                },
                {
                  "internalType": "address",
                  "name": "commented_by",
                  "type": "address"
                }
              ],
              "internalType": "struct Posts.Comment[]",
              "name": "comments",
              "type": "tuple[]"
            },
            {
              "internalType": "int256",
              "name": "reward",
              "type": "int256"
            },
            {
              "internalType": "string",
              "name": "status",
              "type": "string"
            },
            {
              "internalType": "int256",
              "name": "best_comment_ID",
              "type": "int256"
            },
            {
              "internalType": "address[]",
              "name": "liked_by",
              "type": "address[]"
            }
          ],
          "internalType": "struct Posts.Post[]",
          "name": "",
          "type": "tuple[]"
        }
      ],
      "stateMutability": "view",
      "type": "function",
      "constant": true
    },
    {
      "inputs": [
        {
          "internalType": "int256",
          "name": "commentid",
          "type": "int256"
        },
        {
          "internalType": "int256",
          "name": "post_id",
          "type": "int256"
        }
      ],
      "name": "sendBal",
      "outputs": [],
      "stateMutability": "payable",
      "type": "function",
      "payable": true
    }
  ],
  "bytecode": "0x608060405234801561001057600080fd5b50600080819055506128d9806100276000396000f3fe6080604052600436106100705760003560e01c8063655bf3281161004e578063655bf3281461010e5780639133efa514610137578063d06e012914610153578063ebddbaf61461017c57610070565b80630b1e7f8314610075578063195382f1146100bc5780635792971c146100e5575b600080fd5b34801561008157600080fd5b5061009c600480360381019061009791906119f4565b6101a7565b6040516100b39b9a99989796959493929190611b0b565b60405180910390f35b3480156100c857600080fd5b506100e360048036038101906100de9190611c0c565b610561565b005b3480156100f157600080fd5b5061010c60048036038101906101079190611d6e565b6108aa565b005b34801561011a57600080fd5b5061013560048036038101906101309190611c0c565b610a07565b005b610151600480360381019061014c9190611dca565b610d61565b005b34801561015f57600080fd5b5061017a60048036038101906101759190611e0a565b610fe8565b005b34801561018857600080fd5b50610191611159565b60405161019e9190612358565b60405180910390f35b600281815481106101b757600080fd5b90600052602060002090600d02016000915090508060000154908060010154908060020160009054906101000a900473ffffffffffffffffffffffffffffffffffffffff169080600301805461020c906123a9565b80601f0160208091040260200160405190810160405280929190818152602001828054610238906123a9565b80156102855780601f1061025a57610100808354040283529160200191610285565b820191906000526020600020905b81548152906001019060200180831161026857829003601f168201915b50505050509080600401805461029a906123a9565b80601f01602080910402602001604051908101604052809291908181526020018280546102c6906123a9565b80156103135780601f106102e857610100808354040283529160200191610313565b820191906000526020600020905b8154815290600101906020018083116102f657829003601f168201915b505050505090806005018054610328906123a9565b80601f0160208091040260200160405190810160405280929190818152602001828054610354906123a9565b80156103a15780601f10610376576101008083540402835291602001916103a1565b820191906000526020600020905b81548152906001019060200180831161038457829003601f168201915b5050505050908060060180546103b6906123a9565b80601f01602080910402602001604051908101604052809291908181526020018280546103e2906123a9565b801561042f5780601f106104045761010080835404028352916020019161042f565b820191906000526020600020905b81548152906001019060200180831161041257829003601f168201915b505050505090806007018054610444906123a9565b80601f0160208091040260200160405190810160405280929190818152602001828054610470906123a9565b80156104bd5780601f10610492576101008083540402835291602001916104bd565b820191906000526020600020905b8154815290600101906020018083116104a057829003601f168201915b50505050509080600901549080600a0180546104d8906123a9565b80601f0160208091040260200160405190810160405280929190818152602001828054610504906123a9565b80156105515780601f1061052657610100808354040283529160200191610551565b820191906000526020600020905b81548152906001019060200180831161053457829003601f168201915b50505050509080600b015490508b565b60005b6002805490508110156108a6578160028281548110610586576105856123da565b5b90600052602060002090600d02016000015403610893576000805b600283815481106105b5576105b46123da565b5b90600052602060002090600d0201600c018054905081101561080057600283815481106105e5576105e46123da565b5b90600052602060002090600d0201600c018181548110610608576106076123da565b5b9060005260206000200160009054906101000a900473ffffffffffffffffffffffffffffffffffffffff1673ffffffffffffffffffffffffffffffffffffffff163373ffffffffffffffffffffffffffffffffffffffff16036107ed57600191506002838154811061067d5761067c6123da565b5b90600052602060002090600d0201600c016001600285815481106106a4576106a36123da565b5b90600052602060002090600d0201600c01805490506106c39190612438565b815481106106d4576106d36123da565b5b9060005260206000200160009054906101000a900473ffffffffffffffffffffffffffffffffffffffff1660028481548110610713576107126123da565b5b90600052602060002090600d0201600c018281548110610736576107356123da565b5b9060005260206000200160006101000a81548173ffffffffffffffffffffffffffffffffffffffff021916908373ffffffffffffffffffffffffffffffffffffffff16021790555060028381548110610792576107916123da565b5b90600052602060002090600d0201600c018054806107b3576107b261246c565b5b6001900381819060005260206000200160006101000a81549073ffffffffffffffffffffffffffffffffffffffff02191690559055610800565b80806107f89061249b565b9150506105a1565b508061088d576002828154811061081a576108196123da565b5b90600052602060002090600d0201600c01339080600181540180825580915050600190039060005260206000200160009091909190916101000a81548173ffffffffffffffffffffffffffffffffffffffff021916908373ffffffffffffffffffffffffffffffffffffffff1602179055505b506108a6565b808061089e9061249b565b915050610564565b5050565b60005b600280549050811015610a025781600282815481106108cf576108ce6123da565b5b90600052602060002090600d020160000154036109ef576000600282815481106108fc576108fb6123da565b5b90600052602060002090600d020160080160018160018154018082558091505003906000526020600020906003020190508381600101908161093e919061268f565b50338160020160006101000a81548173ffffffffffffffffffffffffffffffffffffffff021916908373ffffffffffffffffffffffffffffffffffffffff16021790555060028281548110610996576109956123da565b5b90600052602060002090600d02016001015481600001819055506001600283815481106109c6576109c56123da565b5b90600052602060002090600d020160010160008282546109e69190612761565b92505081905550505b80806109fa9061249b565b9150506108ad565b505050565b60005b600280549050811015610d5d578160028281548110610a2c57610a2b6123da565b5b90600052602060002090600d020160000154148015610abb57503373ffffffffffffffffffffffffffffffffffffffff1660028281548110610a7157610a706123da565b5b90600052602060002090600d020160020160009054906101000a900473ffffffffffffffffffffffffffffffffffffffff1673ffffffffffffffffffffffffffffffffffffffff16145b15610d4a5760026001600280549050610ad49190612438565b81548110610ae557610ae46123da565b5b90600052602060002090600d020160028281548110610b0757610b066123da565b5b90600052602060002090600d020160008201548160000155600182015481600101556002820160009054906101000a900473ffffffffffffffffffffffffffffffffffffffff168160020160006101000a81548173ffffffffffffffffffffffffffffffffffffffff021916908373ffffffffffffffffffffffffffffffffffffffff16021790555060038201816003019081610ba491906127bb565b5060048201816004019081610bb991906127bb565b5060058201816005019081610bce91906127bb565b5060068201816006019081610be391906127bb565b5060078201816007019081610bf891906127bb565b506008820181600801908054610c0f929190611782565b5060098201548160090155600a820181600a019081610c2e91906127bb565b50600b82015481600b0155600c820181600c01908054610c4f929190611860565b509050506002805480610c6557610c6461246c565b5b60019003818190600052602060002090600d020160008082016000905560018201600090556002820160006101000a81549073ffffffffffffffffffffffffffffffffffffffff0219169055600382016000610cc191906118b2565b600482016000610cd191906118b2565b600582016000610ce191906118b2565b600682016000610cf191906118b2565b600782016000610d0191906118b2565b600882016000610d1191906118f2565b6009820160009055600a82016000610d2991906118b2565b600b820160009055600c82016000610d419190611916565b50509055610d5d565b8080610d559061249b565b915050610a0a565b5050565b600080600090505b600280549050811015610e48578260028281548110610d8b57610d8a6123da565b5b90600052602060002090600d02016000015403610e35578360028281548110610db757610db66123da565b5b90600052602060002090600d0201600b01819055506040518060400160405280600681526020017f436c6f736564000000000000000000000000000000000000000000000000000081525060028281548110610e1657610e156123da565b5b90600052602060002090600d0201600a019081610e33919061268f565b505b8080610e409061249b565b915050610d69565b5060005b600280549050811015610f9b578260028281548110610e6e57610e6d6123da565b5b90600052602060002090600d02016000015403610f885760005b60028281548110610e9c57610e9b6123da565b5b90600052602060002090600d020160080180549050811015610f86578460028381548110610ecd57610ecc6123da565b5b90600052602060002090600d02016008018281548110610ef057610eef6123da565b5b90600052602060002090600302016000015403610f735760028281548110610f1b57610f1a6123da565b5b90600052602060002090600d02016008018181548110610f3e57610f3d6123da565b5b906000526020600020906003020160020160009054906101000a900473ffffffffffffffffffffffffffffffffffffffff1692505b8080610f7e9061249b565b915050610e88565b505b8080610f939061249b565b915050610e4c565b508073ffffffffffffffffffffffffffffffffffffffff166108fc349081150290604051600060405180830381858888f19350505050158015610fe2573d6000803e3d6000fd5b50505050565b600060026001816001815401808255809150500390600052602060002090600d02019050600054816000018190555060008160010181905550338160020160006101000a81548173ffffffffffffffffffffffffffffffffffffffff021916908373ffffffffffffffffffffffffffffffffffffffff16021790555086816003019081611075919061268f565b5085816004019081611087919061268f565b5084816005019081611099919061268f565b50828160060190816110ab919061268f565b50818160070190816110bd919061268f565b508381600901819055506040518060400160405280600481526020017f4f70656e0000000000000000000000000000000000000000000000000000000081525081600a01908161110d919061268f565b507fffffffffffffffffffffffffffffffffffffffffffffffffffffffffffffffff81600b018190555060016000808282546111499190612761565b9250508190555050505050505050565b60606002805480602002602001604051908101604052809291908181526020016000905b8282101561177957838290600052602060002090600d0201604051806101a001604052908160008201548152602001600182015481526020016002820160009054906101000a900473ffffffffffffffffffffffffffffffffffffffff1673ffffffffffffffffffffffffffffffffffffffff1673ffffffffffffffffffffffffffffffffffffffff16815260200160038201805461121b906123a9565b80601f0160208091040260200160405190810160405280929190818152602001828054611247906123a9565b80156112945780601f1061126957610100808354040283529160200191611294565b820191906000526020600020905b81548152906001019060200180831161127757829003601f168201915b505050505081526020016004820180546112ad906123a9565b80601f01602080910402602001604051908101604052809291908181526020018280546112d9906123a9565b80156113265780601f106112fb57610100808354040283529160200191611326565b820191906000526020600020905b81548152906001019060200180831161130957829003601f168201915b5050505050815260200160058201805461133f906123a9565b80601f016020809104026020016040519081016040528092919081815260200182805461136b906123a9565b80156113b85780601f1061138d576101008083540402835291602001916113b8565b820191906000526020600020905b81548152906001019060200180831161139b57829003601f168201915b505050505081526020016006820180546113d1906123a9565b80601f01602080910402602001604051908101604052809291908181526020018280546113fd906123a9565b801561144a5780601f1061141f5761010080835404028352916020019161144a565b820191906000526020600020905b81548152906001019060200180831161142d57829003601f168201915b50505050508152602001600782018054611463906123a9565b80601f016020809104026020016040519081016040528092919081815260200182805461148f906123a9565b80156114dc5780601f106114b1576101008083540402835291602001916114dc565b820191906000526020600020905b8154815290600101906020018083116114bf57829003601f168201915b5050505050815260200160088201805480602002602001604051908101604052809291908181526020016000905b8282101561162e578382906000526020600020906003020160405180606001604052908160008201548152602001600182018054611547906123a9565b80601f0160208091040260200160405190810160405280929190818152602001828054611573906123a9565b80156115c05780601f10611595576101008083540402835291602001916115c0565b820191906000526020600020905b8154815290600101906020018083116115a357829003601f168201915b505050505081526020016002820160009054906101000a900473ffffffffffffffffffffffffffffffffffffffff1673ffffffffffffffffffffffffffffffffffffffff1673ffffffffffffffffffffffffffffffffffffffff16815250508152602001906001019061150a565b50505050815260200160098201548152602001600a82018054611650906123a9565b80601f016020809104026020016040519081016040528092919081815260200182805461167c906123a9565b80156116c95780601f1061169e576101008083540402835291602001916116c9565b820191906000526020600020905b8154815290600101906020018083116116ac57829003601f168201915b50505050508152602001600b8201548152602001600c820180548060200260200160405190810160405280929190818152602001828054801561176157602002820191906000526020600020905b8160009054906101000a900473ffffffffffffffffffffffffffffffffffffffff1673ffffffffffffffffffffffffffffffffffffffff1681526020019060010190808311611717575b5050505050815250508152602001906001019061117d565b50505050905090565b82805482825590600052602060002090600302810192821561184f5760005260206000209160030282015b8281111561184e57828260008201548160000155600182018160010190816117d591906127bb565b506002820160009054906101000a900473ffffffffffffffffffffffffffffffffffffffff168160020160006101000a81548173ffffffffffffffffffffffffffffffffffffffff021916908373ffffffffffffffffffffffffffffffffffffffff1602179055505050916003019190600301906117ad565b5b50905061185c9190611937565b5090565b8280548282559060005260206000209081019282156118a15760005260206000209182015b828111156118a0578254825591600101919060010190611885565b5b5090506118ae919061198d565b5090565b5080546118be906123a9565b6000825580601f106118d057506118ef565b601f0160209004906000526020600020908101906118ee919061198d565b5b50565b50805460008255600302906000526020600020908101906119139190611937565b50565b5080546000825590600052602060002090810190611934919061198d565b50565b5b808211156119895760008082016000905560018201600061195991906118b2565b6002820160006101000a81549073ffffffffffffffffffffffffffffffffffffffff021916905550600301611938565b5090565b5b808211156119a657600081600090555060010161198e565b5090565b6000604051905090565b600080fd5b600080fd5b6000819050919050565b6119d1816119be565b81146119dc57600080fd5b50565b6000813590506119ee816119c8565b92915050565b600060208284031215611a0a57611a096119b4565b5b6000611a18848285016119df565b91505092915050565b6000819050919050565b611a3481611a21565b82525050565b600073ffffffffffffffffffffffffffffffffffffffff82169050919050565b6000611a6582611a3a565b9050919050565b611a7581611a5a565b82525050565b600081519050919050565b600082825260208201905092915050565b60005b83811015611ab5578082015181840152602081019050611a9a565b60008484015250505050565b6000601f19601f8301169050919050565b6000611add82611a7b565b611ae78185611a86565b9350611af7818560208601611a97565b611b0081611ac1565b840191505092915050565b600061016082019050611b21600083018e611a2b565b611b2e602083018d611a2b565b611b3b604083018c611a6c565b8181036060830152611b4d818b611ad2565b90508181036080830152611b61818a611ad2565b905081810360a0830152611b758189611ad2565b905081810360c0830152611b898188611ad2565b905081810360e0830152611b9d8187611ad2565b9050611bad610100830186611a2b565b818103610120830152611bc08185611ad2565b9050611bd0610140830184611a2b565b9c9b505050505050505050505050565b611be981611a21565b8114611bf457600080fd5b50565b600081359050611c0681611be0565b92915050565b600060208284031215611c2257611c216119b4565b5b6000611c3084828501611bf7565b91505092915050565b600080fd5b600080fd5b7f4e487b7100000000000000000000000000000000000000000000000000000000600052604160045260246000fd5b611c7b82611ac1565b810181811067ffffffffffffffff82111715611c9a57611c99611c43565b5b80604052505050565b6000611cad6119aa565b9050611cb98282611c72565b919050565b600067ffffffffffffffff821115611cd957611cd8611c43565b5b611ce282611ac1565b9050602081019050919050565b82818337600083830152505050565b6000611d11611d0c84611cbe565b611ca3565b905082815260208101848484011115611d2d57611d2c611c3e565b5b611d38848285611cef565b509392505050565b600082601f830112611d5557611d54611c39565b5b8135611d65848260208601611cfe565b91505092915050565b60008060408385031215611d8557611d846119b4565b5b600083013567ffffffffffffffff811115611da357611da26119b9565b5b611daf85828601611d40565b9250506020611dc085828601611bf7565b9150509250929050565b60008060408385031215611de157611de06119b4565b5b6000611def85828601611bf7565b9250506020611e0085828601611bf7565b9150509250929050565b60008060008060008060c08789031215611e2757611e266119b4565b5b600087013567ffffffffffffffff811115611e4557611e446119b9565b5b611e5189828a01611d40565b965050602087013567ffffffffffffffff811115611e7257611e716119b9565b5b611e7e89828a01611d40565b955050604087013567ffffffffffffffff811115611e9f57611e9e6119b9565b5b611eab89828a01611d40565b9450506060611ebc89828a01611bf7565b935050608087013567ffffffffffffffff811115611edd57611edc6119b9565b5b611ee989828a01611d40565b92505060a087013567ffffffffffffffff811115611f0a57611f096119b9565b5b611f1689828a01611d40565b9150509295509295509295565b600081519050919050565b600082825260208201905092915050565b6000819050602082019050919050565b611f5881611a21565b82525050565b611f6781611a5a565b82525050565b600082825260208201905092915050565b6000611f8982611a7b565b611f938185611f6d565b9350611fa3818560208601611a97565b611fac81611ac1565b840191505092915050565b600081519050919050565b600082825260208201905092915050565b6000819050602082019050919050565b6000606083016000830151611ffb6000860182611f4f565b50602083015184820360208601526120138282611f7e565b91505060408301516120286040860182611f5e565b508091505092915050565b600061203f8383611fe3565b905092915050565b6000602082019050919050565b600061205f82611fb7565b6120698185611fc2565b93508360208202850161207b85611fd3565b8060005b858110156120b757848403895281516120988582612033565b94506120a383612047565b925060208a0199505060018101905061207f565b50829750879550505050505092915050565b600081519050919050565b600082825260208201905092915050565b6000819050602082019050919050565b60006121018383611f5e565b60208301905092915050565b6000602082019050919050565b6000612125826120c9565b61212f81856120d4565b935061213a836120e5565b8060005b8381101561216b57815161215288826120f5565b975061215d8361210d565b92505060018101905061213e565b5085935050505092915050565b60006101a0830160008301516121916000860182611f4f565b5060208301516121a46020860182611f4f565b5060408301516121b76040860182611f5e565b50606083015184820360608601526121cf8282611f7e565b915050608083015184820360808601526121e98282611f7e565b91505060a083015184820360a08601526122038282611f7e565b91505060c083015184820360c086015261221d8282611f7e565b91505060e083015184820360e08601526122378282611f7e565b9150506101008301518482036101008601526122538282612054565b91505061012083015161226a610120860182611f4f565b506101408301518482036101408601526122848282611f7e565b91505061016083015161229b610160860182611f4f565b506101808301518482036101808601526122b5828261211a565b9150508091505092915050565b60006122ce8383612178565b905092915050565b6000602082019050919050565b60006122ee82611f23565b6122f88185611f2e565b93508360208202850161230a85611f3f565b8060005b85811015612346578484038952815161232785826122c2565b9450612332836122d6565b925060208a0199505060018101905061230e565b50829750879550505050505092915050565b6000602082019050818103600083015261237281846122e3565b905092915050565b7f4e487b7100000000000000000000000000000000000000000000000000000000600052602260045260246000fd5b600060028204905060018216806123c157607f821691505b6020821081036123d4576123d361237a565b5b50919050565b7f4e487b7100000000000000000000000000000000000000000000000000000000600052603260045260246000fd5b7f4e487b7100000000000000000000000000000000000000000000000000000000600052601160045260246000fd5b6000612443826119be565b915061244e836119be565b925082820390508181111561246657612465612409565b5b92915050565b7f4e487b7100000000000000000000000000000000000000000000000000000000600052603160045260246000fd5b60006124a6826119be565b91507fffffffffffffffffffffffffffffffffffffffffffffffffffffffffffffffff82036124d8576124d7612409565b5b600182019050919050565b60008190508160005260206000209050919050565b60006020601f8301049050919050565b600082821b905092915050565b6000600883026125457fffffffffffffffffffffffffffffffffffffffffffffffffffffffffffffffff82612508565b61254f8683612508565b95508019841693508086168417925050509392505050565b6000819050919050565b600061258c612587612582846119be565b612567565b6119be565b9050919050565b6000819050919050565b6125a683612571565b6125ba6125b282612593565b848454612515565b825550505050565b600090565b6125cf6125c2565b6125da81848461259d565b505050565b5b818110156125fe576125f36000826125c7565b6001810190506125e0565b5050565b601f82111561264357612614816124e3565b61261d846124f8565b8101602085101561262c578190505b612640612638856124f8565b8301826125df565b50505b505050565b600082821c905092915050565b600061266660001984600802612648565b1980831691505092915050565b600061267f8383612655565b9150826002028217905092915050565b61269882611a7b565b67ffffffffffffffff8111156126b1576126b0611c43565b5b6126bb82546123a9565b6126c6828285612602565b600060209050601f8311600181146126f957600084156126e7578287015190505b6126f18582612673565b865550612759565b601f198416612707866124e3565b60005b8281101561272f5784890151825560018201915060208501945060208101905061270a565b8683101561274c5784890151612748601f891682612655565b8355505b6001600288020188555050505b505050505050565b600061276c82611a21565b915061277783611a21565b92508282019050828112156000831216838212600084121516171561279f5761279e612409565b5b92915050565b6000815490506127b4816123a9565b9050919050565b8181036127c95750506128a1565b6127d2826127a5565b67ffffffffffffffff8111156127eb576127ea611c43565b5b6127f582546123a9565b612800828285612602565b6000601f83116001811461282f576000841561281d578287015490505b6128278582612673565b86555061289a565b601f19841661283d876124e3565b9650612848866124e3565b60005b828110156128705784890154825560018201915060018501945060208101905061284b565b8683101561288d5784890154612889601f891682612655565b8355505b6001600288020188555050505b5050505050505b56fea26469706673582212208dd005c2bc8ac320c958729dd3dc102542cc672745bbd9695f3a2eb5b01966d864736f6c63430008110033",
  "immutableReferences": {},
  "source": "pragma solidity ^0.8.17;\r\n\r\ncontract Posts{\r\n    int current_post_ID;\r\n    mapping (address => uint) balances;\r\n    event Transfer(address indexed _from, address indexed _to, uint256 _value);\r\n    struct Post{\r\n        int post_id;\r\n        int current_comment_ID;\r\n        address posted_by;\r\n        string title;\r\n        string description;\r\n        string image;\r\n        string suggested_disease;\r\n        string predicted_disease;\r\n        Comment[] comments ;\r\n        int reward;\r\n        string status;\r\n        int best_comment_ID;\r\n        address[] liked_by;\r\n    }\r\n    struct Comment{\r\n        int comment_id;\r\n        string comment;\r\n        address commented_by;\r\n        \r\n    }\r\n    Post[] public posts;\r\n\r\n    constructor(){\r\n        current_post_ID = 0;\r\n    }\r\n\r\n\r\n    function createPost(string memory title,string memory description,string memory image,int reward,string memory suggested_disease,string memory predicted_disease) external{\r\n        Post storage p = posts.push();\r\n        p.post_id = current_post_ID;\r\n        p.current_comment_ID = 0;\r\n        p.posted_by = msg.sender;\r\n\r\n        p.title = title;\r\n        p.description = description;\r\n        p.image = image;\r\n        p.suggested_disease = suggested_disease;\r\n        p.predicted_disease = predicted_disease;\r\n        p.reward = reward;\r\n        p.status = \"Open\";\r\n        p.best_comment_ID = -1;\r\n        current_post_ID+=1;\r\n    }\r\n\r\n    function addComment(string memory comment,int post_id) external{\r\n        for(uint i=0; i<posts.length; i++){\r\n        if(posts[i].post_id == post_id){\r\n            Comment storage c = posts[i].comments.push();\r\n            c.comment = comment;\r\n            c.commented_by = msg.sender;\r\n            c.comment_id = posts[i].current_comment_ID;\r\n            posts[i].current_comment_ID+=1;\r\n        }\r\n     }\r\n    }\r\n\r\n    function likeorRemoveLike(int post_id) external {\r\n        for(uint i=0;i<posts.length;i++){\r\n            if(posts[i].post_id == post_id){\r\n                bool isPres = false;\r\n                for(uint k=0;k<posts[i].liked_by.length;k++){\r\n                    if(msg.sender == posts[i].liked_by[k]){\r\n                        isPres = true;\r\n                        posts[i].liked_by[k] = posts[i].liked_by[posts[i].liked_by.length-1];\r\n                        posts[i].liked_by.pop();\r\n                        break;\r\n                    }\r\n                }\r\n                if(!isPres){\r\n                    posts[i].liked_by.push(msg.sender);\r\n                }\r\n                break;\r\n            }\r\n        }\r\n    }\r\n        \r\n\r\n    \r\n\r\n    function removePost(int post_id) external {\r\n        for(uint i=0;i<posts.length;i++){\r\n            if(posts[i].post_id == post_id && posts[i].posted_by == msg.sender){\r\n                posts[i] = posts[posts.length - 1];\r\n                posts.pop();\r\n                break;\r\n            }\r\n        }\r\n    }\r\n\r\n    function returnData() public view returns (Post[] memory) {\r\n        return posts; \r\n    }\r\n    \r\n    function sendBal(int commentid,int post_id) payable external{\r\n        address payable receiver;\r\n        for(uint i=0;i<posts.length;i++){\r\n            if(posts[i].post_id == post_id){\r\n                posts[i].best_comment_ID = commentid;\r\n                posts[i].status = \"Closed\";\r\n            }\r\n        }\r\n        for(uint i=0;i<posts.length;i++){\r\n            if(posts[i].post_id == post_id){\r\n                for(uint j=0;j<posts[i].comments.length;j++){\r\n                    if(posts[i].comments[j].comment_id == commentid){\r\n                        receiver = payable(posts[i].comments[j].commented_by);\r\n                    }\r\n                }\r\n            }\r\n        }\r\n        receiver.transfer(msg.value); \r\n}\r\n}",
  "sourcePath": "E:\\d-app\\dapp\\truffle\\contracts\\Posts.sol",
  "compiler": {
    "name": "solc",
    "version": "0.8.17+commit.8df45f5f.Emscripten.clang"
  },
  "schemaVersion": "3.4.10",
  "updatedAt": "2023-04-14T05:22:24.325Z",
  "networkType": "ethereum",
  "devdoc": {
    "kind": "dev",
    "methods": {},
    "version": 1
  },
  "userdoc": {
    "kind": "user",
    "methods": {},
    "version": 1
  }
}